{
  "contractName": "LotteryV2",
  "abi": [
    {
      "constant": false,
      "inputs": [],
      "name": "initialize",
      "outputs": [],
      "payable": false,
      "stateMutability": "nonpayable",
      "type": "function"
    },
    {
      "constant": false,
      "inputs": [],
      "name": "play",
      "outputs": [],
      "payable": true,
      "stateMutability": "payable",
      "type": "function"
    },
    {
      "constant": false,
      "inputs": [],
      "name": "runLottery",
      "outputs": [],
      "payable": false,
      "stateMutability": "nonpayable",
      "type": "function"
    },
    {
      "constant": false,
      "inputs": [],
      "name": "refund",
      "outputs": [],
      "payable": false,
      "stateMutability": "nonpayable",
      "type": "function"
    },
    {
      "constant": true,
      "inputs": [],
      "name": "getManager",
      "outputs": [
        {
          "internalType": "address",
          "name": "",
          "type": "address"
        }
      ],
      "payable": false,
      "stateMutability": "view",
      "type": "function"
    },
    {
      "constant": true,
      "inputs": [],
      "name": "getBalance",
      "outputs": [
        {
          "internalType": "uint256",
          "name": "",
          "type": "uint256"
        }
      ],
      "payable": false,
      "stateMutability": "view",
      "type": "function"
    },
    {
      "constant": true,
      "inputs": [],
      "name": "getPlayers",
      "outputs": [
        {
          "internalType": "address payable[]",
          "name": "",
          "type": "address[]"
        }
      ],
      "payable": false,
      "stateMutability": "view",
      "type": "function"
    },
    {
      "constant": true,
      "inputs": [],
      "name": "getPlayersCount",
      "outputs": [
        {
          "internalType": "uint256",
          "name": "",
          "type": "uint256"
        }
      ],
      "payable": false,
      "stateMutability": "view",
      "type": "function"
    },
    {
      "constant": true,
      "inputs": [],
      "name": "getWinner",
      "outputs": [
        {
          "internalType": "address",
          "name": "",
          "type": "address"
        }
      ],
      "payable": false,
      "stateMutability": "view",
      "type": "function"
    },
    {
      "constant": true,
      "inputs": [],
      "name": "getRound",
      "outputs": [
        {
          "internalType": "uint256",
          "name": "",
          "type": "uint256"
        }
      ],
      "payable": false,
      "stateMutability": "view",
      "type": "function"
    },
    {
      "constant": true,
      "inputs": [
        {
          "internalType": "uint256",
          "name": "a",
          "type": "uint256"
        },
        {
          "internalType": "uint256",
          "name": "b",
          "type": "uint256"
        }
      ],
      "name": "sum",
      "outputs": [
        {
          "internalType": "uint256",
          "name": "",
          "type": "uint256"
        }
      ],
      "payable": false,
      "stateMutability": "pure",
      "type": "function"
    }
  ],
  "bytecode": "0x608060405234801561001057600080fd5b50610a74806100206000396000f3fe60806040526004361061009c5760003560e01c80638e7ea5b2116100645780638e7ea5b21461017d57806393e84cd9146101d45780639f8743f7146101de578063a76594bf14610209578063cad0899b14610234578063d50095841461028d5761009c565b806312065fe0146100a15780635674a3ed146100cc578063590e1ae3146100e35780638129fc1c146100fa5780638b5b9ccc14610111575b600080fd5b3480156100ad57600080fd5b506100b66102e4565b6040518082815260200191505060405180910390f35b3480156100d857600080fd5b506100e16102ec565b005b3480156100ef57600080fd5b506100f86104e0565b005b34801561010657600080fd5b5061010f610603565b005b34801561011d57600080fd5b50610126610743565b6040518080602001828103825283818151815260200191508051906020019060200280838360005b8381101561016957808201518184015260208101905061014e565b505050509050019250505060405180910390f35b34801561018957600080fd5b506101926107d1565b604051808273ffffffffffffffffffffffffffffffffffffffff1673ffffffffffffffffffffffffffffffffffffffff16815260200191505060405180910390f35b6101dc6107fb565b005b3480156101ea57600080fd5b506101f3610877565b6040518082815260200191505060405180910390f35b34801561021557600080fd5b5061021e610881565b6040518082815260200191505060405180910390f35b34801561024057600080fd5b506102776004803603604081101561025757600080fd5b81019080803590602001909291908035906020019092919050505061088e565b6040518082815260200191505060405180910390f35b34801561029957600080fd5b506102a261089b565b604051808273ffffffffffffffffffffffffffffffffffffffff1673ffffffffffffffffffffffffffffffffffffffff16815260200191505060405180910390f35b600047905090565b603360009054906101000a900473ffffffffffffffffffffffffffffffffffffffff1673ffffffffffffffffffffffffffffffffffffffff163373ffffffffffffffffffffffffffffffffffffffff161461034657600080fd5b60016034805490501161035857600080fd5b600060024260348054905060405160200180838152602001828152602001925050506040516020818303038152906040526040518082805190602001908083835b602083106103bc5780518252602082019150602081019050602083039250610399565b6001836020036101000a038019825116818451168082178552505050505050905001915050602060405180830381855afa1580156103fe573d6000803e3d6000fd5b5050506040513d602081101561041357600080fd5b810190808051906020019092919050505060001c90506000603480549050828161043957fe5b0690506034818154811061044957fe5b9060005260206000200160009054906101000a900473ffffffffffffffffffffffffffffffffffffffff16603560006101000a81548173ffffffffffffffffffffffffffffffffffffffff021916908373ffffffffffffffffffffffffffffffffffffffff1602179055506104bc6108c5565b603660008154809291906001019190505550603460006104dc91906109cb565b5050565b603360009054906101000a900473ffffffffffffffffffffffffffffffffffffffff1673ffffffffffffffffffffffffffffffffffffffff163373ffffffffffffffffffffffffffffffffffffffff161461053a57600080fd5b60008090505b6034805490508110156105e0576034818154811061055a57fe5b9060005260206000200160009054906101000a900473ffffffffffffffffffffffffffffffffffffffff1673ffffffffffffffffffffffffffffffffffffffff166108fc670de0b6b3a76400009081150290604051600060405180830381858888f193505050501580156105d2573d6000803e3d6000fd5b508080600101915050610540565b506036600081548092919060010191905055506034600061060191906109cb565b565b600060019054906101000a900460ff168061062257506106216109b4565b5b8061063957506000809054906101000a900460ff16155b61068e576040517f08c379a000000000000000000000000000000000000000000000000000000000815260040180806020018281038252602e815260200180610a12602e913960400191505060405180910390fd5b60008060019054906101000a900460ff1615905080156106de576001600060016101000a81548160ff02191690831515021790555060016000806101000a81548160ff0219169083151502179055505b33603360006101000a81548173ffffffffffffffffffffffffffffffffffffffff021916908373ffffffffffffffffffffffffffffffffffffffff16021790555080156107405760008060016101000a81548160ff0219169083151502179055505b50565b606060348054806020026020016040519081016040528092919081815260200182805480156107c757602002820191906000526020600020905b8160009054906101000a900473ffffffffffffffffffffffffffffffffffffffff1673ffffffffffffffffffffffffffffffffffffffff168152602001906001019080831161077d575b5050505050905090565b6000603560009054906101000a900473ffffffffffffffffffffffffffffffffffffffff16905090565b670de0b6b3a7640000341461080f57600080fd5b60343390806001815401808255809150509060018203906000526020600020016000909192909190916101000a81548173ffffffffffffffffffffffffffffffffffffffff021916908373ffffffffffffffffffffffffffffffffffffffff16021790555050565b6000603654905090565b6000603480549050905090565b6000818301905092915050565b6000603360009054906101000a900473ffffffffffffffffffffffffffffffffffffffff16905090565b6000606460634702816108d457fe5b04905060008147039050603560009054906101000a900473ffffffffffffffffffffffffffffffffffffffff1673ffffffffffffffffffffffffffffffffffffffff166108fc839081150290604051600060405180830381858888f19350505050158015610946573d6000803e3d6000fd5b50603360009054906101000a900473ffffffffffffffffffffffffffffffffffffffff1673ffffffffffffffffffffffffffffffffffffffff166108fc829081150290604051600060405180830381858888f193505050501580156109af573d6000803e3d6000fd5b505050565b6000803090506000813b9050600081149250505090565b50805460008255906000526020600020908101906109e991906109ec565b50565b610a0e91905b80821115610a0a5760008160009055506001016109f2565b5090565b9056fe436f6e747261637420696e7374616e63652068617320616c7265616479206265656e20696e697469616c697a6564a265627a7a72315820f98874d4a985b6592206048e3543789c2632f1f6231e91288a406a166c58f1bf64736f6c63430005100032",
  "source": "pragma solidity >=0.4.21 <0.7.0;\n\nimport \"@openzeppelin/upgrades-core/contracts/Initializable.sol\";\n\ncontract LotteryV2 is Initializable {\n    address payable manager;\n    address payable[] players;\n    address payable winner;\n    uint round;\n\n    function initialize() public initializer {\n        manager = msg.sender;\n    }\n\n    // 定义onlyManager修饰器\n    modifier onlyManager() {\n        require(msg.sender == manager);\n        _;\n    }\n\n    /*\n     * 投注\n     */\n    function play() payable public {\n        require(msg.value == 1 ether);\n        players.push(msg.sender);\n    }\n\n    /*\n     * 开奖\n     */\n    function runLottery() public onlyManager {\n        // 至少2个参与者才能开奖\n        require(players.length > 1);\n\n        // 生成随机数\n        uint v = uint(sha256(abi.encodePacked(now, players.length)));\n        // 将随机数对players.length取余，得到中奖人的下标\n        uint index = v % players.length;\n\n        winner = players[index];\n\n        dividePrizePool();\n\n        round++;\n        delete players;\n    }\n\n    /*\n     * 瓜分奖池\n     */\n    function dividePrizePool() private {\n        uint winnerDivide = address(this).balance * 99 / 100;\n        uint managerDivide = address(this).balance - winnerDivide;\n\n        winner.transfer(winnerDivide);\n        manager.transfer(managerDivide);\n    }\n\n    /*\n     * 退奖\n     */\n    function refund() public onlyManager {\n        for (uint i = 0; i < players.length; i++) {\n            players[i].transfer(1 ether);\n        }\n\n        round++;\n        delete players;\n    }\n\n    /*\n     * 获取管理员地址\n     */\n    function getManager() public view returns (address) {\n        return manager;\n    }\n\n    /*\n     * 获取合约余额\n     */\n    function getBalance() public view returns (uint) {\n        return address(this).balance;\n    }\n\n    /*\n     * 获取彩民池\n     */\n    function getPlayers() public view returns (address payable[] memory) {\n        return players;\n    }\n\n    /*\n     * 获取彩民池人数\n     */\n    function getPlayersCount() public view returns (uint) {\n        return players.length;\n    }\n\n    /*\n     * 获取中奖人\n     */\n    function getWinner() public view returns (address) {\n        return winner;\n    }\n\n    /*\n     * 获取彩票期数\n     */\n    function getRound() public view returns (uint) {\n        return round;\n    }\n\n    /*\n     * 测试合约升级\n     */\n    function sum(uint a, uint b) public pure returns (uint) {\n        return a + b;\n    }\n}",
  "sourcePath": "/Users/chenghaiming/work/codes/lottery/contracts/LotteryV2.sol",
  "compiler": {
    "name": "solc",
    "version": "0.5.16+commit.9c3226ce.Emscripten.clang"
  },
  "schemaVersion": "3.4.1",
  "updatedAt": "2021-05-30T09:09:24.528Z",
  "devdoc": {
    "methods": {}
  },
  "userdoc": {
    "methods": {}
  }
}