{
  "contractName": "LotteryV",
  "abi": [
    {
      "constant": false,
      "inputs": [],
      "name": "initialize",
      "outputs": [],
      "payable": false,
      "stateMutability": "nonpayable",
      "type": "function"
    },
    {
      "constant": false,
      "inputs": [],
      "name": "play",
      "outputs": [],
      "payable": true,
      "stateMutability": "payable",
      "type": "function"
    },
    {
      "constant": false,
      "inputs": [],
      "name": "runLottery",
      "outputs": [],
      "payable": false,
      "stateMutability": "nonpayable",
      "type": "function"
    },
    {
      "constant": false,
      "inputs": [],
      "name": "refund",
      "outputs": [],
      "payable": false,
      "stateMutability": "nonpayable",
      "type": "function"
    },
    {
      "constant": true,
      "inputs": [],
      "name": "getManager",
      "outputs": [
        {
          "internalType": "address",
          "name": "",
          "type": "address"
        }
      ],
      "payable": false,
      "stateMutability": "view",
      "type": "function"
    },
    {
      "constant": true,
      "inputs": [],
      "name": "getBalance",
      "outputs": [
        {
          "internalType": "uint256",
          "name": "",
          "type": "uint256"
        }
      ],
      "payable": false,
      "stateMutability": "view",
      "type": "function"
    },
    {
      "constant": true,
      "inputs": [],
      "name": "getPlayers",
      "outputs": [
        {
          "internalType": "address payable[]",
          "name": "",
          "type": "address[]"
        }
      ],
      "payable": false,
      "stateMutability": "view",
      "type": "function"
    },
    {
      "constant": true,
      "inputs": [],
      "name": "getPlayersCount",
      "outputs": [
        {
          "internalType": "uint256",
          "name": "",
          "type": "uint256"
        }
      ],
      "payable": false,
      "stateMutability": "view",
      "type": "function"
    },
    {
      "constant": true,
      "inputs": [],
      "name": "getWinner",
      "outputs": [
        {
          "internalType": "address",
          "name": "",
          "type": "address"
        }
      ],
      "payable": false,
      "stateMutability": "view",
      "type": "function"
    },
    {
      "constant": true,
      "inputs": [],
      "name": "getRound",
      "outputs": [
        {
          "internalType": "uint256",
          "name": "",
          "type": "uint256"
        }
      ],
      "payable": false,
      "stateMutability": "view",
      "type": "function"
    }
  ],
  "bytecode": "0x608060405234801561001057600080fd5b50610a03806100206000396000f3fe6080604052600436106100915760003560e01c80638e7ea5b2116100595780638e7ea5b21461017257806393e84cd9146101c95780639f8743f7146101d3578063a76594bf146101fe578063d50095841461022957610091565b806312065fe0146100965780635674a3ed146100c1578063590e1ae3146100d85780638129fc1c146100ef5780638b5b9ccc14610106575b600080fd5b3480156100a257600080fd5b506100ab610280565b6040518082815260200191505060405180910390f35b3480156100cd57600080fd5b506100d6610288565b005b3480156100e457600080fd5b506100ed61047c565b005b3480156100fb57600080fd5b5061010461059f565b005b34801561011257600080fd5b5061011b6106df565b6040518080602001828103825283818151815260200191508051906020019060200280838360005b8381101561015e578082015181840152602081019050610143565b505050509050019250505060405180910390f35b34801561017e57600080fd5b5061018761076d565b604051808273ffffffffffffffffffffffffffffffffffffffff1673ffffffffffffffffffffffffffffffffffffffff16815260200191505060405180910390f35b6101d1610797565b005b3480156101df57600080fd5b506101e8610813565b6040518082815260200191505060405180910390f35b34801561020a57600080fd5b5061021361081d565b6040518082815260200191505060405180910390f35b34801561023557600080fd5b5061023e61082a565b604051808273ffffffffffffffffffffffffffffffffffffffff1673ffffffffffffffffffffffffffffffffffffffff16815260200191505060405180910390f35b600047905090565b603360009054906101000a900473ffffffffffffffffffffffffffffffffffffffff1673ffffffffffffffffffffffffffffffffffffffff163373ffffffffffffffffffffffffffffffffffffffff16146102e257600080fd5b6001603480549050116102f457600080fd5b600060024260348054905060405160200180838152602001828152602001925050506040516020818303038152906040526040518082805190602001908083835b602083106103585780518252602082019150602081019050602083039250610335565b6001836020036101000a038019825116818451168082178552505050505050905001915050602060405180830381855afa15801561039a573d6000803e3d6000fd5b5050506040513d60208110156103af57600080fd5b810190808051906020019092919050505060001c9050600060348054905082816103d557fe5b069050603481815481106103e557fe5b9060005260206000200160009054906101000a900473ffffffffffffffffffffffffffffffffffffffff16603560006101000a81548173ffffffffffffffffffffffffffffffffffffffff021916908373ffffffffffffffffffffffffffffffffffffffff160217905550610458610854565b60366000815480929190600101919050555060346000610478919061095a565b5050565b603360009054906101000a900473ffffffffffffffffffffffffffffffffffffffff1673ffffffffffffffffffffffffffffffffffffffff163373ffffffffffffffffffffffffffffffffffffffff16146104d657600080fd5b60008090505b60348054905081101561057c57603481815481106104f657fe5b9060005260206000200160009054906101000a900473ffffffffffffffffffffffffffffffffffffffff1673ffffffffffffffffffffffffffffffffffffffff166108fc670de0b6b3a76400009081150290604051600060405180830381858888f1935050505015801561056e573d6000803e3d6000fd5b5080806001019150506104dc565b506036600081548092919060010191905055506034600061059d919061095a565b565b600060019054906101000a900460ff16806105be57506105bd610943565b5b806105d557506000809054906101000a900460ff16155b61062a576040517f08c379a000000000000000000000000000000000000000000000000000000000815260040180806020018281038252602e8152602001806109a1602e913960400191505060405180910390fd5b60008060019054906101000a900460ff16159050801561067a576001600060016101000a81548160ff02191690831515021790555060016000806101000a81548160ff0219169083151502179055505b33603360006101000a81548173ffffffffffffffffffffffffffffffffffffffff021916908373ffffffffffffffffffffffffffffffffffffffff16021790555080156106dc5760008060016101000a81548160ff0219169083151502179055505b50565b6060603480548060200260200160405190810160405280929190818152602001828054801561076357602002820191906000526020600020905b8160009054906101000a900473ffffffffffffffffffffffffffffffffffffffff1673ffffffffffffffffffffffffffffffffffffffff1681526020019060010190808311610719575b5050505050905090565b6000603560009054906101000a900473ffffffffffffffffffffffffffffffffffffffff16905090565b670de0b6b3a764000034146107ab57600080fd5b60343390806001815401808255809150509060018203906000526020600020016000909192909190916101000a81548173ffffffffffffffffffffffffffffffffffffffff021916908373ffffffffffffffffffffffffffffffffffffffff16021790555050565b6000603654905090565b6000603480549050905090565b6000603360009054906101000a900473ffffffffffffffffffffffffffffffffffffffff16905090565b60006064606347028161086357fe5b04905060008147039050603560009054906101000a900473ffffffffffffffffffffffffffffffffffffffff1673ffffffffffffffffffffffffffffffffffffffff166108fc839081150290604051600060405180830381858888f193505050501580156108d5573d6000803e3d6000fd5b50603360009054906101000a900473ffffffffffffffffffffffffffffffffffffffff1673ffffffffffffffffffffffffffffffffffffffff166108fc829081150290604051600060405180830381858888f1935050505015801561093e573d6000803e3d6000fd5b505050565b6000803090506000813b9050600081149250505090565b5080546000825590600052602060002090810190610978919061097b565b50565b61099d91905b80821115610999576000816000905550600101610981565b5090565b9056fe436f6e747261637420696e7374616e63652068617320616c7265616479206265656e20696e697469616c697a6564a265627a7a72315820f302dbbbef66315bdd47b8371ad31473627795197065802fe93047d86f6ec03864736f6c63430005100032",
  "source": "pragma solidity >=0.4.21 <0.7.0;\n\nimport \"@openzeppelin/upgrades-core/contracts/Initializable.sol\";\n\ncontract LotteryV is Initializable {\n    address payable manager;\n    address payable[] players;\n    address payable winner;\n    uint round;\n\n    function initialize() public initializer {\n        manager = msg.sender;\n    }\n\n    // 定义onlyManager修饰器\n    modifier onlyManager() {\n        require(msg.sender == manager);\n        _;\n    }\n\n    /*\n     * 投注\n     */\n    function play() payable public {\n        require(msg.value == 1 ether);\n        players.push(msg.sender);\n    }\n\n    /*\n     * 开奖\n     */\n    function runLottery() public onlyManager {\n        // 至少2个参与者才能开奖\n        require(players.length > 1);\n\n        // 生成随机数\n        uint v = uint(sha256(abi.encodePacked(now, players.length)));\n        // 将随机数对players.length取余，得到中奖人的下标\n        uint index = v % players.length;\n\n        winner = players[index];\n\n        dividePrizePool();\n\n        round++;\n        delete players;\n    }\n\n    /*\n     * 瓜分奖池\n     */\n    function dividePrizePool() private {\n        uint winnerDivide = address(this).balance * 99 / 100;\n        uint managerDivide = address(this).balance - winnerDivide;\n\n        winner.transfer(winnerDivide);\n        manager.transfer(managerDivide);\n    }\n\n    /*\n     * 退奖\n     */\n    function refund() public onlyManager {\n        for (uint i = 0; i < players.length; i++) {\n            players[i].transfer(1 ether);\n        }\n\n        round++;\n        delete players;\n    }\n\n    /*\n     * 获取管理员地址\n     */\n    function getManager() public view returns (address) {\n        return manager;\n    }\n\n    /*\n     * 获取合约余额\n     */\n    function getBalance() public view returns (uint) {\n        return address(this).balance;\n    }\n\n    /*\n     * 获取彩民池\n     */\n    function getPlayers() public view returns (address payable[] memory) {\n        return players;\n    }\n\n    /*\n     * 获取彩民池人数\n     */\n    function getPlayersCount() public view returns (uint) {\n        return players.length;\n    }\n\n    /*\n     * 获取中奖人\n     */\n    function getWinner() public view returns (address) {\n        return winner;\n    }\n\n    /*\n     * 获取彩票期数\n     */\n    function getRound() public view returns (uint) {\n        return round;\n    }\n}\n",
  "sourcePath": "/Users/chenghaiming/work/codes/lottery/contracts/LotteryV.sol",
  "compiler": {
    "name": "solc",
    "version": "0.5.16+commit.9c3226ce.Emscripten.clang"
  },
  "schemaVersion": "3.4.1",
  "updatedAt": "2021-05-30T09:09:24.523Z",
  "devdoc": {
    "methods": {}
  },
  "userdoc": {
    "methods": {}
  }
}