{
  "contractName": "Lottery",
  "abi": [
    {
      "constant": true,
      "inputs": [
        {
          "internalType": "uint256",
          "name": "",
          "type": "uint256"
        }
      ],
      "name": "lastSeeds",
      "outputs": [
        {
          "internalType": "uint256",
          "name": "",
          "type": "uint256"
        }
      ],
      "payable": false,
      "stateMutability": "view",
      "type": "function"
    },
    {
      "constant": false,
      "inputs": [],
      "name": "initialize",
      "outputs": [],
      "payable": false,
      "stateMutability": "nonpayable",
      "type": "function"
    },
    {
      "constant": false,
      "inputs": [
        {
          "internalType": "uint256[]",
          "name": "_input",
          "type": "uint256[]"
        }
      ],
      "name": "play",
      "outputs": [
        {
          "internalType": "bool",
          "name": "",
          "type": "bool"
        }
      ],
      "payable": true,
      "stateMutability": "payable",
      "type": "function"
    },
    {
      "constant": true,
      "inputs": [],
      "name": "getManager",
      "outputs": [
        {
          "internalType": "address",
          "name": "",
          "type": "address"
        }
      ],
      "payable": false,
      "stateMutability": "view",
      "type": "function"
    },
    {
      "constant": true,
      "inputs": [],
      "name": "getBalance",
      "outputs": [
        {
          "internalType": "uint256",
          "name": "",
          "type": "uint256"
        }
      ],
      "payable": false,
      "stateMutability": "view",
      "type": "function"
    },
    {
      "constant": true,
      "inputs": [],
      "name": "getLastRoundWinners",
      "outputs": [
        {
          "internalType": "address payable[]",
          "name": "firstPrizeWinners",
          "type": "address[]"
        },
        {
          "internalType": "address payable[]",
          "name": "secondPrizeWinners",
          "type": "address[]"
        }
      ],
      "payable": false,
      "stateMutability": "view",
      "type": "function"
    },
    {
      "constant": true,
      "inputs": [],
      "name": "getPlayers",
      "outputs": [
        {
          "internalType": "address payable[]",
          "name": "",
          "type": "address[]"
        }
      ],
      "payable": false,
      "stateMutability": "view",
      "type": "function"
    },
    {
      "constant": true,
      "inputs": [],
      "name": "getPlayersCount",
      "outputs": [
        {
          "internalType": "uint256",
          "name": "",
          "type": "uint256"
        }
      ],
      "payable": false,
      "stateMutability": "view",
      "type": "function"
    },
    {
      "constant": true,
      "inputs": [],
      "name": "getSeed",
      "outputs": [
        {
          "internalType": "uint256[]",
          "name": "",
          "type": "uint256[]"
        }
      ],
      "payable": false,
      "stateMutability": "view",
      "type": "function"
    },
    {
      "constant": true,
      "inputs": [],
      "name": "getLastSeeds",
      "outputs": [
        {
          "internalType": "uint256[]",
          "name": "",
          "type": "uint256[]"
        }
      ],
      "payable": false,
      "stateMutability": "view",
      "type": "function"
    },
    {
      "constant": false,
      "inputs": [],
      "name": "runLottery",
      "outputs": [],
      "payable": false,
      "stateMutability": "nonpayable",
      "type": "function"
    },
    {
      "constant": false,
      "inputs": [],
      "name": "getRound",
      "outputs": [
        {
          "internalType": "uint256",
          "name": "",
          "type": "uint256"
        }
      ],
      "payable": false,
      "stateMutability": "nonpayable",
      "type": "function"
    }
  ],
  "bytecode": "0x608060405234801561001057600080fd5b50610eb8806100206000396000f3fe6080604052600436106100a75760003560e01c80638b5b9ccc116100645780638b5b9ccc146102f55780639c1cee9f146103615780639f8743f7146103cd578063a76594bf146103f8578063cd57d48a14610423578063d500958414610472576100a7565b806312065fe0146100ac578063212c84d5146100d757806339e7357c146101a75780635674a3ed146102135780636c46376d1461022a5780638129fc1c146102de575b600080fd5b3480156100b857600080fd5b506100c16104c9565b6040518082815260200191505060405180910390f35b61018d600480360360208110156100ed57600080fd5b810190808035906020019064010000000081111561010a57600080fd5b82018360208201111561011c57600080fd5b8035906020019184602083028401116401000000008311171561013e57600080fd5b919080806020026020016040519081016040528093929190818152602001838360200280828437600081840152601f19601f8201169050808301925050505050505091929192905050506104d1565b604051808215151515815260200191505060405180910390f35b3480156101b357600080fd5b506101bc61055f565b6040518080602001828103825283818151815260200191508051906020019060200280838360005b838110156101ff5780820151818401526020810190506101e4565b505050509050019250505060405180910390f35b34801561021f57600080fd5b506102286105b7565b005b34801561023657600080fd5b5061023f610670565b604051808060200180602001838103835285818151815260200191508051906020019060200280838360005b8381101561028657808201518184015260208101905061026b565b50505050905001838103825284818151815260200191508051906020019060200280838360005b838110156102c85780820151818401526020810190506102ad565b5050505090500194505050505060405180910390f35b3480156102ea57600080fd5b506102f3610789565b005b34801561030157600080fd5b5061030a6108e3565b6040518080602001828103825283818151815260200191508051906020019060200280838360005b8381101561034d578082015181840152602081019050610332565b505050509050019250505060405180910390f35b34801561036d57600080fd5b50610376610971565b6040518080602001828103825283818151815260200191508051906020019060200280838360005b838110156103b957808201518184015260208101905061039e565b505050509050019250505060405180910390f35b3480156103d957600080fd5b506103e26109c9565b6040518082815260200191505060405180910390f35b34801561040457600080fd5b5061040d6109d3565b6040518082815260200191505060405180910390f35b34801561042f57600080fd5b5061045c6004803603602081101561044657600080fd5b81019080803590602001909291905050506109e0565b6040518082815260200191505060405180910390f35b34801561047e57600080fd5b50610487610a01565b604051808273ffffffffffffffffffffffffffffffffffffffff1673ffffffffffffffffffffffffffffffffffffffff16815260200191505060405180910390f35b600047905090565b6000670de0b6b3a764000034146104e757600080fd5b60343390806001815401808255809150509060018203906000526020600020016000909192909190916101000a81548173ffffffffffffffffffffffffffffffffffffffff021916908373ffffffffffffffffffffffffffffffffffffffff1602179055505061055682610a2b565b60019050919050565b606060358054806020026020016040519081016040528092919081815260200182805480156105ad57602002820191906000526020600020905b815481526020019060010190808311610599575b5050505050905090565b603360009054906101000a900473ffffffffffffffffffffffffffffffffffffffff1673ffffffffffffffffffffffffffffffffffffffff163373ffffffffffffffffffffffffffffffffffffffff161461061157600080fd5b60376039908054610623929190610d07565b506038603a908054610636929190610d07565b5060356036908054610649929190610d59565b50610652610b21565b603760006106609190610dab565b6038600061066e9190610dab565b565b60608060398054806020026020016040519081016040528092919081815260200182805480156106f557602002820191906000526020600020905b8160009054906101000a900473ffffffffffffffffffffffffffffffffffffffff1673ffffffffffffffffffffffffffffffffffffffff16815260200190600101908083116106ab575b50505050509150603a80548060200260200160405190810160405280929190818152602001828054801561077e57602002820191906000526020600020905b8160009054906101000a900473ffffffffffffffffffffffffffffffffffffffff1673ffffffffffffffffffffffffffffffffffffffff1681526020019060010190808311610734575b505050505090509091565b600060019054906101000a900460ff16806107a857506107a7610bbd565b5b806107bf57506000809054906101000a900460ff16155b610814576040517f08c379a000000000000000000000000000000000000000000000000000000000815260040180806020018281038252602e815260200180610e56602e913960400191505060405180910390fd5b60008060019054906101000a900460ff161590508015610864576001600060016101000a81548160ff02191690831515021790555060016000806101000a81548160ff0219169083151502179055505b33603360006101000a81548173ffffffffffffffffffffffffffffffffffffffff021916908373ffffffffffffffffffffffffffffffffffffffff160217905550603b600081548092919060010191905055506108bf610b21565b80156108e05760008060016101000a81548160ff0219169083151502179055505b50565b6060603480548060200260200160405190810160405280929190818152602001828054801561096757602002820191906000526020600020905b8160009054906101000a900473ffffffffffffffffffffffffffffffffffffffff1673ffffffffffffffffffffffffffffffffffffffff168152602001906001019080831161091d575b5050505050905090565b606060368054806020026020016040519081016040528092919081815260200182805480156109bf57602002820191906000526020600020905b8154815260200190600101908083116109ab575b5050505050905090565b6000603b54905090565b6000603480549050905090565b603681815481106109ed57fe5b906000526020600020016000915090505481565b6000603360009054906101000a900473ffffffffffffffffffffffffffffffffffffffff16905090565b6000610a3682610bd4565b90506004811415610aac5760373390806001815401808255809150509060018203906000526020600020016000909192909190916101000a81548173ffffffffffffffffffffffffffffffffffffffff021916908373ffffffffffffffffffffffffffffffffffffffff16021790555050610b1d565b6003811415610b1c5760383390806001815401808255809150509060018203906000526020600020016000909192909190916101000a81548173ffffffffffffffffffffffffffffffffffffffff021916908373ffffffffffffffffffffffffffffffffffffffff160217905550505b5b5050565b60356000610b2f9190610dcc565b60008090505b6004811015610bba5760004482420260405160200180838152602001828152602001925050506040516020818303038152906040528051906020012060001c9050603560098281610b8257fe5b069080600181540180825580915050906001820390600052602060002001600090919290919091505550508080600101915050610b35565b50565b6000803090506000813b9050600081149250505090565b600080600080600090505b603580549050811015610cfc5760008090505b8551811015610cee5760358281548110610c0857fe5b9060005260206000200154868281518110610c1f57fe5b60200260200101511415610cd15760008190505b8651811015610ccf5760016035805490500382828501031115610c5557610ccf565b6035828285010381548110610c6657fe5b9060005260206000200154878281518110610c7d57fe5b60200260200101511415610c98578380600101945050610ca7565b6003841015610ca657600093505b5b6001875103811415610cc2576003841015610cc157600093505b5b8080600101915050610c33565b505b83831115610cdd578293505b600092508080600101915050610bf2565b508080600101915050610bdf565b508192505050919050565b828054828255906000526020600020908101928215610d485760005260206000209182015b82811115610d47578254825591600101919060010190610d2c565b5b509050610d559190610ded565b5090565b828054828255906000526020600020908101928215610d9a5760005260206000209182015b82811115610d99578254825591600101919060010190610d7e565b5b509050610da79190610e30565b5090565b5080546000825590600052602060002090810190610dc99190610e30565b50565b5080546000825590600052602060002090810190610dea9190610e30565b50565b610e2d91905b80821115610e2957600081816101000a81549073ffffffffffffffffffffffffffffffffffffffff021916905550600101610df3565b5090565b90565b610e5291905b80821115610e4e576000816000905550600101610e36565b5090565b9056fe436f6e747261637420696e7374616e63652068617320616c7265616479206265656e20696e697469616c697a6564a265627a7a72315820ae6914aca086be97af0f86d3a085e4ffb6cd9a7a0ff215abcc879d04e614975364736f6c63430005100032",
  "source": "pragma solidity >=0.4.21 <0.7.0;\n\nimport \"@openzeppelin/upgrades-core/contracts/Initializable.sol\";\n\ncontract Lottery is Initializable {\n    address payable manager;\n    address payable[] players;\n    uint256 [] internal seeds;\n    uint256 [] public lastSeeds;\n//\n    address payable[] currentFirstPrize;\n    address payable[] currentSecondPrize;\n\n    address payable[] lastFirstPrize;\n    address payable[] lastSecondPrize;\n\n    uint round;\n\n    function initialize() public initializer {\n        manager = msg.sender;\n        round++;\n        createSeeds();\n\n    }\n\n    // 定义onlyManager修饰器\n    modifier onlyManager() {\n        require(msg.sender == manager);\n        _;\n    }\n\n    /*\n     * 投注\n     */\n    function play(uint256[] memory _input) payable public returns (bool){\n        require(msg.value == 1 ether);\n        players.push(msg.sender);\n        compareUserInputNumbers(_input);\n        return true;\n    }\n\n    function compareUserInputNumbers(uint256[] memory _input) internal{\n        uint256 res = calculationResult(_input);\n        if(res==4){\n            currentFirstPrize.push(msg.sender);\n        }else if(res==3){\n            currentSecondPrize.push(msg.sender);\n        }\n\n    }\n\n\n    function createSeeds() internal {\n        delete seeds;\n        for(uint i = 0;i<4;i++){\n            uint256 v = uint256(keccak256(abi.encodePacked(block.difficulty,now*i)));\n            seeds.push(v%9);\n        }\n    }\n\n\n    function calculationResult(uint256[] memory _input) internal returns(uint256){\n\n        uint256 finalHits;\n        uint256 currentHits;\n\n        for(uint256 i = 0;i<seeds.length;i++){\n            for(uint256 j=0;j<_input.length;j++){\n                if(_input[j]==seeds[i]){\n                    for(uint256 k=j;k<_input.length;k++){\n                        if(i+k-j>seeds.length-1){\n                            break;\n                        }\n\n                        if(_input[k]==seeds[i+k-j]){\n                            currentHits++;\n                        }else{\n                            if(currentHits<3){\n                                currentHits = 0;\n                            }\n                        }\n\n                        if(k==_input.length-1){\n                            if(currentHits<3){\n                                currentHits=0;\n                            }\n                        }\n                    }\n                }\n                if(currentHits>finalHits){\n                    finalHits = currentHits;\n                }\n                currentHits=0;\n            }\n        }\n        return finalHits;\n    }\n\n\n    /*\n     * 获取管理员地址\n     */\n    function getManager() public view returns (address) {\n        return manager;\n    }\n\n    /*\n     * 获取合约余额\n     */\n    function getBalance() public view returns (uint) {\n        return address(this).balance;\n    }\n\n    function getLastRoundWinners() public view returns(address payable[] memory firstPrizeWinners,address payable[] memory secondPrizeWinners){\n        firstPrizeWinners = lastFirstPrize;\n        secondPrizeWinners = lastSecondPrize;\n    }\n\n\n    /*\n     * 获取彩民池\n     */\n    function getPlayers() public view returns (address payable[] memory) {\n        return players;\n    }\n\n    /*\n     * 获取彩民池人数\n     */\n    function getPlayersCount() public view returns (uint) {\n        return players.length;\n    }\n\n//   本次开奖号码\n    function getSeed() public view returns(uint256[] memory){\n        return seeds;\n    }\n\n    function getLastSeeds() public view returns(uint256[] memory){\n        return lastSeeds;\n    }\n\n//   开奖\n    function runLottery() external onlyManager{\n        lastFirstPrize = currentFirstPrize;\n        lastSecondPrize = currentSecondPrize;\n        lastSeeds = seeds;\n        createSeeds();\n        delete currentFirstPrize;\n        delete currentSecondPrize;\n    }\n\n    function getRound() public returns(uint){\n        return round;\n    }\n}\n",
  "sourcePath": "/Users/chenghaiming/work/codes/lottery/contracts/Lottery.sol",
  "compiler": {
    "name": "solc",
    "version": "0.5.16+commit.9c3226ce.Emscripten.clang"
  },
  "schemaVersion": "3.4.1",
  "updatedAt": "2021-05-30T10:30:04.224Z",
  "devdoc": {
    "methods": {}
  },
  "userdoc": {
    "methods": {}
  }
}